:020000040800F2
:100000000040002089040008D9040008D904000831
:1000100000000000000000000000000000000000E0
:10002000000000000000000000000000D9040008EB
:100030000000000000000000D9040008F9030008D7
:10004000D9040008D9040008D9040008D90400081C
:10005000D9040008D9040008D9040008D90400080C
:10006000D9040008D9040008D9040008D9040008FC
:10007000D9040008D9040008D9040008D9040008EC
:10008000D9040008D9040008D9040008D9040008DC
:10009000D9040008D9040008D9040008D9040008CC
:1000A000D9040008D9040008D9040008D9040008BC
:1000B000D9040008D9040008D9040008D9040008AC
:1000C000002243088B4274D303098B425FD3030A97
:1000D0008B4244D3030B8B4228D3030C8B420DD3AA
:1000E000FF22090212BA030C8B4202D31212090238
:1000F00065D0030B8B4219D300E0090AC30B8B4276
:1001000001D3CB03C01A5241830B8B4201D38B0323
:10011000C01A5241430B8B4201D34B03C01A5241C8
:10012000030B8B4201D30B03C01A5241C30A8B420B
:1001300001D3CB02C01A5241830A8B4201D38B02F6
:10014000C01A5241430A8B4201D34B02C01A52419A
:10015000030A8B4201D30B02C01A5241CDD2C3090C
:100160008B4201D3CB01C01A524183098B4201D388
:100170008B01C01A524143098B4201D34B01C01A73
:10018000524103098B4201D30B01C01A5241C308EB
:100190008B4201D3CB00C01A524183088B4201D35A
:1001A0008B00C01A524143088B4201D34B00C01A46
:1001B0005241411A00D20146524110467047FFE7B2
:1001C00001B5002000F006F802BDC0460029F7D0B6
:1001D00076E770477047C0460448054B10B5834228
:1001E00003D0044B002B00D0984710BD080000201E
:1001F000080000200000000006480749091A8B107B
:10020000C90FC91810B5491003D0044B002B00D0FA
:10021000984710BD080000200800002000000000E2
:1002200010B5074C2378002B09D1FFF7D5FF054BFC
:10023000002B02D0044800E000BF0123237010BD52
:100240000C000020000000002C060008054B10B533
:10025000002B03D00449054800E000BFFFF7CCFFA6
:1002600010BDC04600000000100000202C06000851
:1002700080B582B000AF0200FB1D1A70FB1D1B7819
:100280007F2B09D8FB1D1B781A001F231A40044B33
:10029000012191400A001A60C046BD4602B080BDEF
:1002A00000E100E090B583B000AF02003960FB1DB3
:1002B0001A70FB1D1B787F2B28D82F4AFB1D1B783B
:1002C0005BB29B08C0339B009B58FA1D127811004B
:1002D00003220A40D200FF2191400A00D2431A4073
:1002E00011003B689B01FF221A40FB1D1B78180080
:1002F00003230340DB009A401F48FB1D1B785BB2C1
:100300009B080A43C0339B001A5031E01B4AFB1D77
:100310001B7819000F230B40083B9B0806339B00FA
:10032000D31804331B68FA1D1278110003220A4007
:10033000D200FF2191400A00D2431A4011003B68CD
:100340009B01FF221A40FB1D1B781800032303406A
:10035000DB009A400948FB1D1B781C000F2323403B
:10036000083B9B080A4306339B00C31804331A60FA
:10037000C046BD4603B090BD00E100E000ED00E0E6
:1003800080B582B000AF78607B685A1E80235B0422
:100390009A4201D3012310E00A4B7A68013A5A606D
:1003A00001235B4203211800FFF77CFF054B00226D
:1003B0009A60044B07221A6000231800BD4602B061
:1003C00080BDC04610E000E080B500AF094B1B685F
:1003D000FA2291001800FFF773FE03001800FFF7E0
:1003E000CFFF01235B421800FFF742FFC046BD4626
:1003F00080BDC0460000002080B500AF034B1B68E5
:100400005A1C024B1A60C046BD4680BD0800002041
:1004100080B582B000AF194B5A69184B8021890210
:100420000A435A619023DB051A689023DB051449BF
:100430000A401A609023DB051A689023DB058021AF
:10044000C9000A431A60FFF7BFFF62B6C046002327
:100450007B6030BF0B4B1A687B68D21AFA235B00B3
:100460009A42F6D3074B1B687B609023DB055A69E1
:100470009023DB0520214A405A61EAE70010024040
:10048000FFF3FFFF080000200D48854600F025F827
:100490000C480D490D4A002302E0D458C4500433DF
:1004A000C4188C42F9D30A4A0A4C002301E01360B5
:1004B0000432A242FBD300F015F8FFF7A9FFFEE7D4
:1004C0000040002000000020080000205006000826
:1004D00008000020C0010020FEE780B500AFC04644
:1004E000BD4680BD70B50D4B0D4D5E1BB610AB42C9
:1004F00005D0002408CD01349847A642FAD800F070
:1005000095F8084B084D5E1BB610AB4205D0002491
:1005100008CD01349847A642FAD870BD44060008B9
:10052000440600084C060008440600087047C04610
:100530007047C046034B10B5002B02D0024800F0B4
:1005400005F810BD000000005D05000810B50100B1
:1005500000230022002000F015F810BD70B5074CF4
:10056000074D641BA41005D0013CA300EB5898472D
:10057000002CF9D100F060F870BDC04650060008AC
:100580004C060008F0B5D6464F4646469846244BE2
:10059000C0B5060018689A460F009146FFF7C6FFDF
:1005A000204B1D68002D32D053466C6818681F2CF4
:1005B00030DC002E0CD1631C0234A4006B60675148
:1005C000FFF7B6FF0020E0BCBA46B146A846F0BD32
:1005D00049468822A300EB189950C42149008C4653
:1005E000AC446146873AA24009689146114362468D
:1005F00011608421424649005A50022EDBD1290065
:100600004A468D31FF310B6813430B60D3E7064D2B
:100610001D60C9E7FFF78CFF01204042D3E7C046C9
:10062000040000202C00002030000020F8B5C04657
:10063000F8BC08BC9E467047F8B5C046F8BC08BC7C
:040640009E4670471B
:08064400350500084D02000815
:04064C00210200087F
:0806500000127A0028000020CE
:040000050800048962
:00000001FF
